:020000040000FA
:040000008031202803
:100008007E1480310B1F09280A281E284E019A1CCD
:100018000E280F281A28901C122813281A2887310E
:10002800192780314001BB01BB0A1E2801001E2888
:100038001E281E287E10090080312228DA3084000C
:1000480084308500D0308600203087000130FF00E2
:10005800203087312927803187315F278031C400DC
:1000680020308400003085001C30FE000030FF0086
:100078008731352780317E1040018631BD2E00340E
:1000880000340034003400340034003400340034C8
:1000980000340034003400340034003400340034B8
:1000A80000340034003400340034003400340034A8
:1000B8000034003400340034003400340034003498
:1000C8000034003400340034003400340034003488
:1000D8000034003400340034003400340034013477
:1000E8000134013401340134013401340134003461
:1000F8000034003401340134003400340034013455
:100108000134013401340134013401340134003440
:100118000034003400340034003400340034013436
:100128000134013401340134013401340034003421
:100138000034003401340134003400340134013413
:100148000134013401340134013401340034003401
:1001580000340034003400340034003400340134F6
:1001680001340134013401340134013401340034E0
:1001780000340034013401340034003401340034D4
:1001880000340034013401340134013401340034C2
:1001980000340034003400340034003400340134B6
:1001A80001340134013401340134013401340034A0
:1001B8000034003401340134003400340134003494
:1001C8000034003401340134013401340134003482
:1001D8000034003400340034003400340034013476
:1001E8000134013401340134013401340034003461
:1001F8000034003401340134003400340134013453
:100208000134013401340134013401340034003440
:100218000034003400340034003400340034003436
:100228000034003401340134013401340134013420
:100238000134013400340034003400340034003414
:100248000034003401340134013401340134003401
:1002580000340034003400340034003400340034F6
:1002680000340034003400340034003400340034E6
:1002780000340034003400340034003400340134D5
:1002880001340134013401340134013401340134BE
:1002980001340034003400340034013401340134B2
:1002A80001340034003400340034013401340034A3
:1002B8000034003400340034003400340034013495
:1002C800013401340134013401340134013400347F
:1002D8000034003401340134003400340034013473
:1002E800013401340134013401340134013400345F
:1002F8000034003400340034003400340034013455
:10030800013401340134013401340134013400343E
:100318000034003400340034003401340134003433
:100328000034003400340034003401340134003423
:100338000034003400340034003400340034013414
:100348000134013401340034003401340134003400
:1003580000340034003400340034003400340134F4
:1003680001340034003400340134013401340134E0
:1003780001340034013401340034013401340134CF
:1003880001340134003400340034013401340034C1
:1003980000340034003400340034003400340034B5
:1003A80000340034003400340034013401340134A2
:1003B800013401340134013401340134013400348E
:1003C8000034003400340034003401340134003483
:1003D8000034003400340034003400340034013474
:1003E800013401340134013401340134013400345E
:1003F8000034003400340034003401340134003453
:100408000034003400340134013401340134003440
:100418000034003400340034003401340134013431
:10042800013401340134013401340134013400341D
:100438000034003400340034003400340034013413
:1004480001340134013401340134013400340034FE
:1004580000340034013401340034003401340134F0
:1004680001340134013401340134013400340034DE
:1004780000340034003400340034003400340134D3
:1004880001340034003400340134013401340134BF
:1004980001340034013401340034013401340134AE
:1004A80001340134003400340034013401340034A0
:1004B8000034003400340034003400340034003494
:1004C8000034003400340034003400340034003484
:1004D8000034003400340034003400340034003474
:1004E8000034003400340034003400340034003464
:1004F8000034003400340034003400340034003454
:100508000034003400340034003400340034003443
:100518000034003400340034003400340034003433
:100528000034003400340034003400340034003423
:100538000034003400340034003400340034013016
:10054800F60076084001B90708303902031CAD2AC5
:10055800AE2ADE2AB9013808031DB32AB42ACA2AEA
:100568000130F6007608C4071C304406031DBD2A76
:10057800BE2ADE2A38080319C22AC42A0130C52A2D
:100588000030F6007608B800DE2ADE2A0130C40200
:100598004408031DD02AD12ADE2A38080319D52A8F
:1005A800D72A0130D82A0030F6007608B800DE2AAB
:1005B800DE2ADE2ABE01BF0100303F0218300319CF
:1005C8003E02031CE82AE92AEB2AFD2AFD2A3E08F6
:1005D800203E8600870181010130BE070030BF3D03
:1005E80000303F02183003193E02031CFC2AFD2A82
:1005F800EB2A9A1D002B012BA72C9A111A16C00161
:10060800C10100304102083003194002031C0D2BC0
:100618000E2B102BD92CD92C4108F1004008F000E2
:100628002430F2000030F30086319B2682314001ED
:100638004408073EF600003003180130F700D030B8
:10064800F8002030F90076087807FA007708793D35
:10065800FB0070087A07860071087B3D8700010857
:10066800FC007C08AD002D08031D3B2B3C2B3F2BC9
:10067800AE01AE0A412BAE01412B4108F100400802
:10068800F0002430F2000030F30086319B268231DE
:1006980040014408063EF600003003180130F70018
:1006A800D030F8002030F90076087807FA0077088B
:1006B800793DFB0070087A07860071087B3D87004A
:1006C8000108FC007C08B0003008031D6C2B6D2B62
:1006D800702BB101B10A722BB101722B4108F100E4
:1006E8004008F0002430F2000030F30086319B26E9
:1006F800823140014408053EF600003003180130FD
:10070800F700D030F8002030F90076087807FA00B2
:100718007708793DFB0070087A07860071087B3DF1
:1007280087000108FC007C08A6002608031D9D2BF5
:100738009E2BA12BA801A80AA32BA801A32B410833
:10074800F1004008F0002430F2000030F300863158
:100758009B26823140014408043EF600003003180D
:100768000130F700D030F8002030F900760878071B
:10077800FA007708793DFB0070087A07860071084F
:100788007B3D87000108FC007C08A9002908031D9F
:10079800CE2BCF2BD22BAB01AB0AD42BAB01D42B56
:1007A8004108F1004008F0002430F2000030F30066
:1007B80086319B26823140014408033EF600003012
:1007C80003180130F700D030F8002030F90076081F
:1007D8007807FA007708793DFB0070087A078600E9
:1007E80071087B3D87000108FC007C08A0002008F8
:1007F800031DFF2B002C032CA201A20A052CA20129
:10080800052C4108F1004008F0002430F2000030C7
:10081800F30086319B26823140014408023EF600EF
:10082800003003180130F700D030F8002030F9000C
:1008380076087807FA007708793DFB0070087A0790
:10084800860071087B3D87000108FC007C08A30036
:100858002308031D302C312C342CA501A50A362C75
:10086800A501362C4108F1004008F0002430F200C0
:100878000030F30086319B26823140014408013E56
:10088800F600003003180130F700D030F8002030AF
:10089800F90076087807FA007708793DFB007008B8
:1008A8007A07860071087B3D87000108FC007C08F8
:1008B800B3003308031D612C622C652CB401B40A03
:1008C800672CB401672C4408F600F7014108F100D1
:1008D8004008F0002430F2000030F30086319B26F7
:1008E8008231D030F8002030F90070087807FA001B
:1008F8007108793DFB0076087A07860077087B3D0A
:1009080087000108FC007C084001B6003608031D7A
:100918008E2C8F2C922CB701B70A942CB701942CEB
:100928008531FA25823101304001C0070030C13DD0
:1009380000304102083003194002031CA42CA52CE6
:10094800102BD92CD92C9A151A12BC01BD010030D4
:100958003D02083003193C02031CB32CB42CB62CFE
:10096800D92CD92CAD01B001A601A901A001A30180
:10097800B301B601AE01B101A801AB01A201A50105
:10098800B401B7018531FA25823101304001BC0735
:100998000030BD3D00303D02083003193C02031C05
:1009A800D62CD72CB62CD92CD92C080000340134DD
:1009B800013401340134003401340034003400348B
:1009C800003401340134013401340034013400347A
:1009D800003401340034013400340034003400346D
:1009E8000134013401340134003401340134003459
:1009F800003400340034013401340134013400344B
:100A0800013400340034003400340134013401343A
:100A1800013400340134003400340134003401342A
:100A2800003400340034003401340134013401341A
:100A3800003401340034013400340034003401340B
:100A480000340034003400340134003400340034FD
:100A580000340134003400340034003401340034EC
:100A680000340134003401340034003400340034DC
:100A780001340034003400340034013400340034CC
:100A880001340034003401340134013400340034BA
:100A980001340034003400340034013400340034AC
:100AA800003400340034013401340034003401349B
:100AB800003400340034003401340034003400348D
:100AC800003401340034003401340034003401347B
:100AD800003400340034003401340034003400346D
:100AE8000034013401340134013400340034013459
:100AF800013400340034013400340034003400344C
:100B08000134013401340134003401340034003438
:100B1800013400340034013400340034003400342B
:100B2800013400340034003400340134003400341B
:100B3800003400340134003400340134003401340A
:100B480000340034003400340134003400340034FC
:100B580000340134003400340134003400340134EA
:100B680000340034003400340134013401340134D9
:100B780000340134013401340134003401340034C8
:100B880000340134003401340134013401340034B8
:100B980001340134013401340034013400340134A7
:100BA800003400340034013400340034003400349C
:100BB8000134013401340134003401340134013486
:100BC8000134003401340034003401340034013479
:100BD8000134013401340034013401340134013466
:100BE800003401340134003400340034F401F501D8
:100BF800F201F301F1011C30F0000230890B022EE2
:100C0800F00B022E400118164C2E40019A120030AB
:100C180075026130031974020318132E142E162E50
:100C28001A113D2E0030750278300319740203182A
:100C38001E2E1F2E212E1A153D2E0130F000700891
:100C4800F30707307302031C2A2E2B2E322EF301D2
:100C58000130F0007008F207322E322E7208203E62
:100C680086008701010C031C1A1103181A153D2E62
:100C78003D2E003200320032003240019A16003216
:100C88000032003200320130F4070030F53D4C2EBE
:100C980001307502203003197402031C542E552E9E
:100CA800092E40019A12003200320032003240010F
:100CB800181200320032003200320800F001F1014F
:100CC80040019A111A129A129812181218111A152C
:100CD8007D2E40019A160032003200320032400167
:100CE8009A1200320032003200320130F007003030
:100CF800F13D01307102203003197002031C852E6A
:100D0800862E6D2E400118160530890B892E00009D
:100D1800400118120032003200320032400118152A
:100D28000032003200320032400198160800F40107
:100D3800F5019E2E701CA12EA22EA62E7208F40775
:100D48007308F53D0130F235F30D890BA72E0130FC
:100D5800F136F00C890BAC2E70087104031DB52E0A
:100D6800B62E9E2EB72E7508F1007408F000BC2E22
:100D78000800873109278631A0300032890BC12E3F
:100D88008631622686318B170B17640040013B03BE
:100D9800031DCF2ED02EC92EBB018231A32286314E
:100DA800C92EC92EC92EC92E80312028400198018C
:100DB8009A010B309200033094003F307E01CE0040
:100DC8003430B800B901CF01BA01D0013F30BB00BF
:100DD8003F30D1003F30BC003F30D2000800013026
:100DE800450190008F019101BF308D008C014E01AB
:100DF80090109A146030F0000730F10087315927BD
:100E08008631FC3045018E00080087314B27873139
:100E18008631DA2687318731412787318731532751
:100E280087318631F326873108004E019010400142
:100E3800420843040319212F222F282F43088A0030
:100E480042080A008731282F0800FE0012001E0001
:100E58000130FE020030FF3B7F087E04031D2A2F6D
:100E680000346400800101310130FE020030FF3B94
:100E78007F087E04031D362F0034103051018D0089
:100E88008F019101063093009001920108004F01F3
:100E980096019701980199019A019B010800163063
:100EA80050018C0027308D00080071084001C300F4
:0A0EB8007008C200080008340800AA
:020000040001F9
:0A000E009C3FFF3FBF3FFF3FFF3F55
:00000001FF
